:020000040800F2
:1000000000000220E1040008310D0008330D000853
:10001000350D0008370D0008390D000800000000FC
:10002000000000000000000000000000D1390008BE
:100030003B0D000800000000613A00083D0D00087B
:1000400031050008310500083105000831050008B8
:1000500031050008310500083105000831050008A8
:100060003105000831050008310500083105000898
:100070003105000831050008310500083105000888
:100080003105000831050008310500083105000878
:100090003105000831050008310500083105000868
:1000A0003105000831050008310500083105000858
:1000B0003105000831050008310500083105000848
:1000C0003105000831050008310500083105000838
:1000D0003105000831050008310500083105000828
:1000E0003105000831050008310500083105000818
:1000F0003105000831050008310500083105000808
:1001000031050008310500083105000831050008F7
:100110003105000831050008250D000831050008EB
:1001200031050008310500083105000831050008D7
:1001300031050008410D00083105000831050008AF
:1001400031050008310500083105000831050008B7
:1001500031050008310500083105000831050008A7
:100160003105000831050008310500083105000897
:1001700031050008310500083105000800000000C5
:04018000310500083D
:1001900010B5054C237833B9044B13B10448AFF3C1
:1001A00000800123237010BD8C000020000000009F
:1001B000D0C5000808B5034B1BB103490348AFF392
:1001C000008008BD0000000090000020D0C500089D
:1001D00010F8012B11F8013B012A28BF9A42F7D0F1
:1001E000D01A7047034613F8012B002AFBD1181AC6
:1001F0000138704753B94AB9002908BF00281CBF0D
:100200004FF0FF314FF0FF3000F068B9ADF1080C4E
:100210006DE904CE00F006F8DDF804E0DDE9022324
:1002200004B070472DE9F047089D0C46002B4ED1D5
:1002300094468C458646B2FA82F262D94AB1C2F13E
:100240002003914020FA03F30CFA02FC194300FA50
:1002500002FE4FEA1C47B1FBF7F407FB14111FFA2B
:100260008CF64FEA1E4343EA014304FB06F1994230
:100270000AD91CEB030304F1FF3080F0108199428E
:1002800040F20D81023C6344591AB1FBF7F007FBC1
:10029000101100FB06F61FFA8EF343EA01439E425B
:1002A0000AD91CEB030300F1FF3180F0FA809E4273
:1002B00040F2F7806344023800219B1B40EA04406F
:1002C0001DB1D3400022C5E90032BDE8F0878B4262
:1002D00005D90DB1C5E9000100210846F5E7B3FADB
:1002E00083F1002946D1A34202D39042C0F0EE80B0
:1002F000861A64EB03030120002DE6D0C5E90063F4
:10030000E3E7002A40F08F80A1EB0C0401214FEAC3
:100310001C481FFA8CF7B4FBF8F608FB164407FBE1
:1003200006F04FEA1E4343EA0443984208D91CEB07
:10033000030306F1FF3402D2984200F2CB80264636
:100340001C1AB4FBF8F008FB104400FB07F71FFA77
:100350008EF343EA04439F4208D91CEB030300F1E8
:10036000FF3402D29F4200F2AE802046DB1B40EAFF
:100370000640A5E7C1F120078B4022FA07FC4CEAB2
:10038000030C24FA07F64FEA1C49B6FBF9F81FFAEA
:100390008CFE09FB186620FA07F38C4000FA01FA7C
:1003A00008FB0EF01C43230C43EA0643984202FA72
:1003B00001F20AD91CEB030308F1FF3680F08180BB
:1003C00098427ED9A8F1020863441E1AB6FBF9F3DD
:1003D00009FB136603FB0EFEA4B244EA0644A645DD
:1003E00008D91CEB040403F1FF3066D2A64564D99A
:1003F000023B644443EA0840A0FB0283A4EB0E04E2
:100400009C42C6461E4650D34DD055B1BAEB0E03A2
:1004100064EB060404FA07F7CB401F43CC40C5E960
:100420000074002151E70CFA02FCC2F12003D9400C
:100430004FEA1C4820FA03F300FA02FEB1FBF8F081
:1004400008FB101194401C431FFA8CF7230C43EA5D
:10045000014300FB07F1994208D91CEB030300F1AB
:10046000FF362CD299422AD9023863445B1AB3FB77
:10047000F8F108FB1133A4B244EA034401FB07F38B
:10048000A34208D91CEB040401F1FF3613D2A342A6
:1004900011D902396444E41A41EA00413BE70446B9
:1004A000F2E6084608E7C245AFD2B8EB020E63EBAE
:1004B0000C060138A9E73146EDE703469AE73046D6
:1004C000D4E7B04681E7634402384FE70646234647
:1004D000084611E7023E634432E700BF704700BFA1
:1004E000DFF834D0002103E00C4B5B58435004315B
:1004F0000B480C4B42189A42F6D30B4A02E00023F9
:1005000042F8043B094B9A42F9D300F065FC0BF02A
:100510004FF800F08DFB704700000220185F0108C3
:10052000000000208C0000208C000020340C0120F2
:10053000FEE70120704708B50BF034F8162303607E
:100540004FF0FF3008BD08B50BF02CF81623036000
:10055000FEE770B50D4614460E46731B9C4201DC47
:10056000204670BDAFF3008006F8010BF5E770B5CB
:100570000D4614460E46731B9C4201DC204670BD9E
:1005800016F8010BAFF30080F5E700000A4A08B542
:100590001168034609B909491160694610680344A6
:1005A0008B4206D90AF0FEFF0C2303604FF0FF30A8
:1005B00008BD1360FCE700BFA8000020380C012034
:1005C0004FF0FF3070474FF4005300204B607047EE
:1005D000012070470020704790F83330DB074CBF94
:1005E0000020012000F0EABB2DE9F74F4FF0000892
:1005F0000C46454640F2F45BDFF88CA0DAF82C603C
:10060000B3682CB92946204800F0A6FD204604E036
:100610003268002A0FDA6FF00700DAF8003003F5CD
:1006200080535A69920641BF20225A6100225A60C3
:1006300003B0BDE8F08F47464FF00009628961685A
:1006400007EB0208D84503EB0700494408D8CDE979
:1006500000230AF0DCFF009A2468019B1544D0E7D0
:10066000ABEB07020AF0D3FFF6683368002BD2DB4E
:1006700009F2F45905F2F455A9EB0709ED1BB3682B
:100680000027A8F2F452DAE7B00000202DE9F74F76
:100690008346374C4FF0FF31A06C02F0C8FF07468D
:1006A0000028F7D1204600F0C7FD05460028F1D10B
:1006B000A18FD4F84080E1B900260022236BA16B02
:1006C0008A424DD32368A76303F580535A69120603
:1006D00042BF80225A619F60002EDBD059463046CF
:1006E000DBF8103098470028DCD0304607F0D2F80D
:1006F000D8E70322042007F037F906460028DBD0AC
:1007000043468046226B0092A9464FF0000AB8F893
:100710000A2040F2F45CD8F8040009EB02056545B4
:10072000504403EB090109D801930AF070FFD8F88F
:100730000080019BB8F1000FE6D1BEE7C9F5BE62AB
:1007400004320AF064FF009B0AF2F45ADB68AAEB59
:10075000090A00934FF000099B68A5F2F452D8E70C
:100760001968013241F000411960DB68A7E700BF5A
:10077000B000002030B500258DB0394C0095236BBA
:1007800007A943F001032363236B364803F00103F9
:100790000093009B0195236B43F002032363236BBB
:1007A00003F002030193019B0295236B43F00403C2
:1007B0002363236B03F004030293029B0395236BD3
:1007C00043F040032363236B03F040030393039B35
:1007D00003230A930223CDE908350B230B938623C9
:1007E000079300F03DFF4FF4005307A91E480793FD
:1007F00000F036FF322307A91C48079300F030FFB2
:1008000042F6040307A91A48079300F029FF2A4675
:1008100007213D2000F052FB3D2000F07FFB0495B6
:10082000236B43F000732363236B03F00073049383
:10083000049B0595236B43F080632363236B03F0D4
:1008400080630593059B0695236B43F00063236348
:10085000236B03F000630693069B0DB030BD00BF11
:10086000003802400000024000040240000802403C
:1008700000180240014B986C02F0FFBEB00000204F
:10088000F0B5044689B030B94FF4D872314B3249D3
:1008900032480AF093FD47F27343A386304B314D43
:1008A0006361314B4FF48042A361304B18689B88E1
:1008B0000190ADF808302E4B28462B6001AB6B61E0
:1008C0000123C5E901324FF40062AB61EA60002305
:1008D0004FF40002EB612A622B8200F0A1FD28B9DF
:1008E00094F8333043F0040384F83330214905236E
:1008F000214AA1F14C0000F0BBFB2049204A05230E
:10090000A1F1EC0000F0EFFB40F2DC53638540F214
:1009100006230027E36294F83330012143F00A03F1
:1009200084F833306846278684F83270009702F0E6
:1009300069FE144EA86403AD0FCE0FC5336821467F
:1009400003A82B6002F0EAFD064800F04FFE38468F
:1009500009B0F0BD843301088C4201081734010846
:1009600005630008B0000020E9050008E8C500089C
:1009700000800240FC0000203C0200209C0100207E
:1009800000200020F0C5000800F06EBA012307B572
:100990000022009304494FF4FA7304480AF0CAFB9A
:1009A00003B05DF804FB00BF5D0A00084534010890
:1009B00030B50024ADF5077D054621464FF40072A1
:1009C00006A8CDE90344ADF814400AF07CFD1C4BA9
:1009D0001C491A6803A801321A600AF001FD03A934
:1009E00006A80AF078FD184906A80AF074FD174910
:1009F00006A80AF070FD06A8FFF7F4FB06AB184442
:100A000002F0B0FE124906A80AF065FD114906A8D9
:100A10000AF061FD012340F23B620F492846009431
:100A200003F0F2FA06A8FFF7DDFB0123024600946B
:100A3000284606A903F0E8FA0DF5077D30BD00BF92
:100A4000C43D00204A3401084D34010881340108B6
:100A5000B7340108ED34010804C6000800222DE96E
:100A6000F047114610208CB003F07EF906460028AE
:100A700000F082805022002103F0E6F900287BD1AB
:100A8000FF21304603F004FADFF8F480DFF8F49039
:100A9000DFF8F4A0304604A903F016FA0028F9D1D3
:100AA000049C05A9204603F05FFA002845D194F97B
:100AB0000830002B41D105980DF10E0206A904F073
:100AC0008DFABDF80E30042B37D9069D052241461C
:100AD00028460AF00FFD80BB1B22494628460AF033
:100AE00009FD074670B9294907A80AF045FB3B46AE
:100AF00000972046DDE9071203F086FA07A80AF0FE
:100B00005BFB1AE01F22514628460AF0F3FC074619
:100B100008B91F49E8E71D2228461E490AF0EAFCE9
:100B2000074608B91C49DFE7182228461B490AF086
:100B3000E1FC60B92046FFF73BFF204603F0AEFA28
:100B4000059804F039FA049803F068F9A2E7132233
:100B5000284613490AF0CEFC28B10622284611493E
:100B60000AF0C8FC30B9104907A80AF005FB0023B9
:100B70000093BEE70D49F7E70CB0BDE8F08700BF72
:100B8000283501082E3501084A350108323501089B
:100B90004E3501086A3501086E35010888350108AF
:100BA000A1350108B5350108A5350108BC35010896
:100BB00000B5002089B000F0C9F8012000F0C6F8A7
:100BC0000021084604F0C6FA6FF07F43144A154C22
:100BD000CDE9052303F52843C1330793124B05A93B
:100BE0000293124B06AA019300232046009307AB01
:100BF00006F06EFD204606F0ABFD94F8333020463B
:100C000059070AD506F0AAFDFFF7C0FE0548FFF711
:100C1000E3FC002002F09AFCFBE706F0ADFDF3E7F1
:100C2000C0A8000AC83D002019510008810800082A
:100C300000B593B000F0F2F8052301220224CDE9BB
:100C400006234FF480020821CDE90C42F02206A8C9
:100C5000CDE90E12CDE9104300F0E8FD0F23002688
:100C6000CDE901344FF4A053CDE903634FF4805331
:100C7000084D032101A806AC059300F09BFF0FCDA2
:100C80000FC42B683146236006A802F047FC02F02F
:100C900039FCFEE740CC000810B5014688B00022C0
:100CA000362000F00BF9362000F038F900230293CB
:100CB000174B01A91A6C03A842F010021A641B6CAE
:100CC00003F010030293029B01F030F8069BCBB9AE
:100CD00001F014F80F4C104B236040F2E733E3604F
:100CE0000E4BB0FBF3F00023013860602046236117
:100CF000A360A36101F076F940B9204601F036F80F
:100D000008B010BD00F0FAFF4000E3E70120F7E76C
:100D100000380240003E00200010004040420F001A
:100D200000F096B8014801F05FB800BF003E002017
:100D30007047FEE7FEE7FEE7FEE7704702F008BDFA
:100D4000014800F0BEBA00BFB000002070B5184BDB
:100D500088B008BB01901A6B42F002021A631B6B49
:100D600003F002030193019B124B002633F810504D
:100D70000123CDE9043602230F4C03A904EB8004C0
:100D800060680693039500F06BFC32462946606864
:100D900000F046FD08B070BD002202921A6B42F0CE
:100DA00002021A631B6B03F002030293029BDBE750
:100DB0000038024054CC000800000020044B0549D4
:100DC00003EB800331F810100122586800F028BDB1
:100DD0000000002054CC000800210C4B1A6842F09F
:100DE00001021A6099601A6822F0847222F480323B
:100DF0001A60074A5A601A6822F480221A604FF07B
:100E00000062D960034B9A60704700BF003802400F
:100E10001030002400ED00E07047000008B50B4BD7
:100E200003201A6842F400721A601A6842F4806261
:100E30001A601A6842F480721A6000F02DF80F20D0
:100E4000FFF72AFFFFF7E8FF002008BD003C024043
:100E5000034A044B11681B780B441360704700BFB2
:100E6000483E002018000020014B1868704700BF62
:100E7000483E002038B50446FFF7F6FF0546631CE0
:100E80001EBF044B1B78E418FFF7EEFF431BA34281
:100E9000FAD338BD1800002007490302CA6803F4DA
:100EA000E06322F4E0621204120C134343F0BF63C8
:100EB00043F40033CB60704700ED00E0154B30B5D4
:100EC000DC68C4F30224C4F10703251D042B28BFEA
:100ED0000423062D4FF0FF3594BF0024033C05FA90
:100EE00003F321EA0303A54022EA0502A3400028F8
:100EF00043EA0203ACBF00F16040074A4FEA031324
:100F0000DBB2ABBF00F5614000F00F0080F80033AA
:100F1000135430BD00ED00E014ED00E0002807DBC5
:100F200001234109034A00F01F00834042F82130A9
:100F3000704700BF00E100E04FF4FA52064B82B068
:100F40001B68B3FBF2F3019300BF019B5A1E019291
:100F5000002BF9D102B0704714000020002307B520
:100F60000193036803F580539A6942F480129A61F1
:100F70009B690193FFF7E0FF0368019A03F5805333
:100F80009A6103B05DF804FB70B5044629B14FF4D3
:100F900080434FF40062C0E90232D4E902321343C5
:100FA000E2692168B2FA82F25209086843EA8223B0
:100FB0002B4A0240134343F400730B6001200D6879
:100FC000FFF758FF4022236801201D605A605D68CA
:100FD000FFF750FF236801205D6000259D60DD6004
:100FE0009A6922F0BE021204120C42F080029A6149
:100FF0009E69FFF73FFF236801209E61DD61DD6987
:10100000FFF738FF2268174BD56102F580529169CE
:1010100001200B4043F0087343F00403936195698A
:10102000FFF728FF2368104A03F580539D610120D4
:101030001A601D68FFF71EFF2368A26903F580533D
:101040001D60012A01BFDA6942F4803242F0400299
:10105000DA616269054B9188196412685A6470BD3F
:101060000F8120FF233FDEF88020C1020080024074
:10107000F0B5044690F8450001284FF002001AD060
:1010800001254FF4801784F8455040F2F45C0025A8
:1010900084F84400E16201F1200003F1FF3E9D422B
:1010A0000AD12368002003F580531961012384F8D5
:1010B000450084F84430F0BD0CFB052640F8186C60
:1010C000E66940F8207C2EB950F8206C46F44006C2
:1010D00040F8206CAE4594BF0E460646013540F8F8
:1010E000146C2030DBE72DE9F041044690F8450010
:1010F00001284FF002001CD001254FF0004684F873
:10110000455044F2F457002540F2F45C84F8440062
:10111000A16201F1200003F1FF3EAB420BD1236835
:10112000002003F58053D960012384F8450084F83A
:101130004430BDE8F0810CFB052840F8188CAE4522
:1011400094BF8846804640F8206C40F81C7C40F8EC
:10115000148C01352030E0E7F0B590F845300246B8
:10116000012B4FF002000BD0012382F8440082F8DB
:10117000453031B982F844300023012082F84530EF
:10118000F0BDD36A1868002801DA1223F2E740F2B2
:10119000F454A1422FD9B1FBF4F004FB101444B372
:1011A0000130244C01F2F45104FB001140F2F456DA
:1011B0000024C1F30C01471E1D6825F040551D6039
:1011C0001CB91D6845F080551D60A74208BF1D6809
:1011D00004F1010404BF45F000551D601D685E6008
:1011E00045F0004508BF596084421D60DB68E3D1CB
:1011F0000DE00128D5D11868C1F30C0140F0405032
:1012000018605960196841F000411960DB68D362C9
:101210001368002003F580535969490741BF042131
:10122000596100215960012382F8450082F8443059
:10123000A6E700BF0CFAFFFF30B590F84520034643
:10124000012A4FF0020039D0012283F84400062021
:1012500083F845209A6A1168002901DB013806D11C
:101260000120002283F8440083F8452026E011681D
:10127000D46801F44071B1F5007F04D101211A63F3
:1012800099639C62E6E71568996B15F4407F01F15C
:101290000101F5D0012908BF1A63C3E90D211268C5
:1012A0000020C2F30D42043ADA631A6B92689C6222
:1012B0001A64012283F8450083F8442030BD70474A
:1012C0007047026838B502F580525569044615F03A
:1012D000400525D0FFF7CEFA4022236803F580535E
:1012E0005A61012384F84430002384F845304FF4D8
:1012F0008032236803F580535A615B691B040ED565
:101300002046FFF7DDFF4FF40042236803F58053CA
:101310005A61012384F84430002384F8453038BDF5
:101320005369DA07E3D5FFF7CAFF0122236803F503
:1013300080535A6184F8442084F84550D7E7F8B5C3
:1013400090F844300646822B154630D0822302683E
:10135000048A80F844301369E402890101F4F861D9
:10136000A4B203F01C030C431C4344F001041461B9
:10137000FFF77AFD074614F0010007D133685B6977
:101380009BB22B60012386F844300CE0FFF76CFD24
:10139000C01BB0F5803F07D3012386F844300023FB
:1013A000032086F84530F8BD33681C69E3E7022066
:1013B000F9E770B590F844300546422B2ED0422311
:1013C00080F844302C8A0368E4021869890101F42A
:1013D000F861A4B200F01C000C43044392B244F044
:1013E00003045A611C61FFF73FFD064614F001003B
:1013F00003D1012385F844300CE0FFF735FD801B55
:10140000B0F5803F07D3012385F844300023032043
:1014100085F8453070BD2B681C69E7E70220F9E7C5
:101420000023F7B50446009300284AD090F84430D2
:1014300003F0FF021BB980F84520FFF79BF900235A
:101440000193624B5A6C42F480425A645B6C03F421
:1014500080430193019B5E4B5A6822F400025A605C
:101460005A68216A0A435A60236803F580531A6850
:1014700042F001021A60FFF7F7FC0546236803F506
:1014800080521268D00720D41D6900F031FC514B06
:10149000514A0344934225F01C0524D245F0080527
:1014A00023684FF400421D6100212046FFF781FFB1
:1014B000054640B301212046FFF766FD012384F86D
:1014C00044300125284603B0F0BDFFF7CDFC401B9A
:1014D000B0F5FA7FD2D9032384F8443000230325E2
:1014E00084F84530EEE73D4B3D4A0344934202D831
:1014F00045F00C05D4E73B4B3B4A0344934228BFDD
:1015000045F00405CCE7FF20FFF7B4FC6168002933
:101510004BD0FFF7A9FC41F2883706466A46012105
:101520002046FFF70CFFFFF79FFC801BB84205D950
:1015300001212046FFF728FD0123CDE7009B590735
:10154000ECD54FF4805200212046FFF732FF0028EF
:10155000B0D1FFF789FC41F2883706466A4601217F
:101560002046FFF7ECFEFFF77FFC801BB842DFD878
:10157000009B9A06F2D56A461F212046FFF7DFFE40
:10158000002897D1009AC2F30013DB02E3605307EF
:1015900056BF4FF48043A060A36000212046FFF7B0
:1015A000F3FC012384F844308CE7D4E90223520889
:1015B00042EAD302204692B2FFF7FBFE00287FF4F6
:1015C00079AF40F6FF70FFF755FCE6E700380240C0
:1015D0000038014000D3CEFEC0E1E40040F1E9FD57
:1015E0003F787D0100796CFC005A620237B590F8B3
:1015F00045300224012B2FD080F8444001250024DF
:101600000368019480F845501A6842F008021A6095
:101610001B680193FFF790FC019A03681A6000941D
:101620001A6842F004021A601B680093FFF784FCFA
:101630000368009A1A60FFF791FC036803F5805372
:101640009A6942F400529A619A6942F002029A61E0
:1016500080F8445080F84540204603B030BD00007B
:1016600000232DE9F74FDFF8AC916B4C0A6832FA92
:1016700003F502D103B0BDE8F08F012505FA03F8A8
:1016800018EA020200F0B38003274E684FEA430EC7
:1016900006F0030507FA0EFC6F1E012F6FEA0C0C13
:1016A00034D8876807EA0C0ACF6807FA0EF747EACA
:1016B0000A078760476827EA0808C6F300179F40B3
:1016C00047EA08074760C768022D07EA0C088F68D9
:1016D00007FA0EF747EA0807C76019D14FF00F0B5A
:1016E0004FEAD30800EB880803F0070AD8F8207007
:1016F0004FEA8A0A0BFA0AFB27EA0B0B0F6907FA73
:101700000AF747EA0B07C8F8207001E0032DDAD189
:10171000076805FA0EF507EA0C073D4316F4403F4B
:10172000056064D000254FF00F0E0195D9F84450A4
:1017300023F0030745F48045C9F84450D9F84450D4
:1017400007F1804705F48045019507F59C3703F0C4
:10175000030C019D4FEA8C0CBD680EFA0CFE25EAC5
:101760000E0E2E4DA84244D005F58065A84242D009
:1017700005F58065A84240D005F58065A8423ED0B9
:1017800005F58065A8423CD005F58065A8423AD0B1
:1017900005F58065A84238D005F58065A84236D0A9
:1017A00005F58065A84214BF0925082505FA0CF542
:1017B00045EA0E05BD60D743A56816F4801F0CBF2F
:1017C0003D401543A560E56816F4001F0CBF3D4081
:1017D0001543E560656816F4003F0CBF3D401543B6
:1017E00065602568F60354BF3D401543256001330D
:1017F0003CE70025DAE70125D8E70225D6E70325EF
:10180000D4E70425D2E70525D0E70625CEE707254E
:10181000CCE700BF00380240003C0140000002401D
:101820000AB1816170470904FBE700002DE9F3412B
:10183000044640B30368DE0710D423689D0744D4F0
:101840002368190700F1908023685A0700F1B080DF
:10185000A369002B40F00181002027E09C4B9A688F
:1018600002F00C02042A07D09A6802F00C02082A3F
:101870000BD15B68590208D5954B1B689A03DCD5E0
:101880006368002BD9D1012010E02379904DAB7013
:10189000636873B1FFF7E8FA06462B689B03CCD464
:1018A000FFF7E2FA801B6428F7D9032002B0BDE8F5
:1018B000F081FFF7D9FA06462B689F03BDD5FFF7E5
:1018C000D3FA801B6428F7D9EFE7814B9A6812F0AE
:1018D0000C0F07D09A6802F00C02082A16D15B6838
:1018E000590213D47A490B689A0702D5E368012B91
:1018F000C9D1F822086892FAA2F2B2FA82F22369F8
:10190000934020F0F80213430B6099E7E268714BB3
:10191000DAB101221A60FFF7A7FA06466C4D2B6870
:101920009B070CD5F822296892FAA2F2B2FA82F249
:101930002369934021F0F80213432B6080E7FFF7FF
:1019400093FA801B0228EAD9AFE71A60FFF78CFAF6
:1019500005465F4E33689F077FF572AFFFF784FA45
:10196000401B0228F6D9A0E762695A4B82B10122D6
:10197000C3F8802EFFF778FA0546554E736F9B0724
:101980003FF562AFFFF770FA401B0228F6D98CE7EB
:10199000C3F8802EFFF768FA05464D4E736F9F0718
:1019A0007FF552AFFFF760FA401B0228F6D97CE7BB
:1019B000474B1A6C12F0805226D1012701921A6C03
:1019C00042F080521A641B6C03F080530193019B18
:1019D000414D2B6843F480732B602B68D80515D5D7
:1019E000237A3B4D85F87030A368FBB9FFF73CFACA
:1019F00041F2883806462B6F9B071FD5FFF734FA54
:101A0000801B4045F7D950E70027E1E72B6843F4F6
:101A100080732B60FFF728FA06462B68D905DFD4C0
:101A2000FFF722FA801B0228F7D93EE7FFF71CFADE
:101A300041F2883806462B6F9A0708D5002F3FF4ED
:101A400007AF234A136C23F08053136400E7FFF7BA
:101A50000BFA801B4045EED927E71D4DAA6802F01E
:101A60000C02082A4DD00022022B1A4B1A663BD1D9
:101A7000FFF7FAF906462B6899012FD46A68D4E972
:101A8000073122F0746222F45F3222F47F720B433A
:101A900022F003021343626A43EA8213E26A43EAD2
:101AA0000263A26A5208013A43EA024301226B60D0
:101AB000084B074D1A66FFF7D7F904462B689A01C1
:101AC0003FF5CAAEFFF7D0F9001B6428F6D9ECE663
:101AD000003802400000474200700040FFF7C4F9A0
:101AE000801B6428C7D9E0E6FFF7BEF904462B68DF
:101AF0009B017FF5B1AEFFF7B7F9001B6428F6D95B
:101B0000D3E6012B3FF4BFAE6B68E26903F48001BA
:101B100091427FF4B8AE216A03F03F028A427FF41B
:101B2000B2AE47F6C072616A1A40B2EB811F7FF411
:101B3000AAAEA26A03F440315208013AB1EB024F57
:101B40007FF4A1AEE26A03F07063B3EB026F14BFDF
:101B500001200020AAE600BF134908B58B6803F0F6
:101B60000C03042B1CD0082B1CD14A684B68496815
:101B700013F4800314BF0D480D48C1F3881118BF3A
:101B80000023A1FB000102F03F02FEF733FB064BEE
:101B90005B68C3F3014301335B00B0FBF3F008BDA6
:101BA0000248FCE70248FAE70038024000127A00D7
:101BB0000024F4002DE9F0410D46044610B901203F
:101BC000BDE8F081454B1A6802F00F028A422ED31D
:101BD00021688F0733D4C80746D4404B1A6802F0F7
:101BE0000F02AA4269D8226851076FD4130707D59C
:101BF0003B4A2169936823F4604343EAC10393603D
:101C0000FFF7AAFF364BF0229B6892FAA2F2B2FAD3
:101C100082F203F0F003D340324AD35CD840324B17
:101C20001860324B1868FFF737F80020C8E7CAB2CF
:101C30001A701B6803F00F038B42C0D1C8E7284B12
:101C400011F0040F1EBF9A6842F4E0529A600E072A
:101C500042BF9A6842F460429A609A68A06822F093
:101C6000F00202439A60B6E761681D4B01291A68C9
:101C70001BD112F4003FA2D09A6841F2883822F0BA
:101C800003020A439A60FFF7EFF80646144FBB6859
:101C9000626803F00C03B3EB820F9ED0FFF7E4F809
:101CA000801B4045F3D903208AE7022902D112F0B4
:101CB000007FE0E712F0020FDDE7EAB21A701B685E
:101CC00003F00F03AB427FF47AAF8CE70449E0687E
:101CD0008B6823F4E05303438B6087E7003C0240AA
:101CE000003802405ECC0008140000201C000020D8
:101CF000014B1868704700BF14000020084B4FF4D8
:101D0000E0529B6892FAA2F2B2FA82F203F4E05334
:101D1000D340044AD35C044A1068D840704700BFDF
:101D2000003802406ECC0008140000200F2303602E
:101D30000B4B9A6802F0030242609A6802F0F002CC
:101D400082609A6802F4E052C2609B68DB0803F488
:101D5000E0530361034B1B6803F00F030B607047F4
:101D600000380240003C02407047000090F83D30CF
:101D7000012B30D1022380F83D300368DA6842F04D
:101D80000102DA60154A93421AD0B3F1804F17D09E
:101D9000A2F57C42934213D002F5806293420FD0A9
:101DA00002F5806293420BD002F57842934207D04D
:101DB00002F57052934203D0A2F59432934204D1BB
:101DC0009A6802F00702062A03D01A6842F001025C
:101DD0001A60002070470120704700BF00000140DA
:101DE0007047704770477047036870B5DD681E69BB
:101DF0000446B1070DD5AA070BD56FF002021A6190
:101E0000012202779B699B0769D0FFF7EAFF002355
:101E10002377710710D56A070ED56FF00402236887
:101E200020461A61022222779B6913F4407F5CD01E
:101E3000FFF7D7FF0023237733070FD528070DD5EA
:101E40006FF00802236820461A6104222277DB69BA
:101E5000990750D0FFF7C5FF00232377F20610D56E
:101E6000EB060ED56FF01002236820461A61082297
:101E70002277DB6913F4407F43D0FFF7B2FF0023E2
:101E80002377F00708D5E90706D56FF0010223682C
:101E900020461A61FEF744FF320608D52B0606D508
:101EA0006FF08002236820461A6100F0C8F87006BF
:101EB00008D5690606D56FF04002236820461A61EE
:101EC000FFF791FFB20622D5AB0620D56FF02002B6
:101ED00023682046BDE870401A6100F0AFB8FFF7F4
:101EE0007FFF2046FFF77EFF91E7FFF779FF20464F
:101EF000FFF778FF9EE7FFF773FF2046FFF772FFBB
:101F0000AAE7FFF76DFF2046FFF76CFFB7E770BD4C
:101F1000324A0368904212D0B0F1804F0FD0A2F540
:101F20007C4290420BD002F58062904207D002F5CD
:101F30008062904203D002F57842904219D14A68FB
:101F400023F070031343254A904229D0B0F1804F0B
:101F500026D0A2F57C42904222D002F580629042C7
:101F60001ED002F5806290421AD002F5784290426B
:101F700016D01B4A904213D002F5806290420FD0D7
:101F800002F5806290420BD0A2F59832904207D0C1
:101F900002F58062904203D002F58062904203D144
:101FA000CA6823F4407313434A6923F08003134340
:101FB0008A68C2620A688262084A904203D002F5C7
:101FC0008062904201D10A690263026842F0040211
:101FD0000260012242610360704700BF00000140BF
:101FE0000040014010B5044630B390F83D3003F096
:101FF000FF021BB980F83C20FFF7B6FE02232068E1
:1020000084F83D30211DFFF783FF0123002084F871
:10201000463084F83E3084F83F3084F8403084F80D
:10202000413084F8423084F8433084F8443084F8F6
:10203000453084F83D3010BD0120FCE77047704703
:102040004FF0FF3200F10803C0E90223436003614F
:1020500000230360704700230361704743689A6858
:102060004B608A60516099600368086101330360C6
:10207000704730B50C68631C0AD103695A684A601E
:1020800091608B605960036808610133036030BD63
:1020900000F10802134652681568A542FAD9EDE727
:1020A0000369D0E901128A6051605968814208BF12
:1020B0005A60002202611A68013A1A601868704773
:1020C00010B5044601F096FCA46B01F0B3FCB4FA21
:1020D00084F0400910BD70B51646026C0446856B4D
:1020E00042B906689EB9806801F004F9A66001351E
:1020F000A56370BD6EB9406809F089FA6368226C07
:102100001344A2686360934224BF23686360002085
:10211000EDE7C06809F07BFA226CE36851429B1A34
:102120002268E36093423EBFA3685B18E360022E1F
:10213000EDD10DB1013DEAE72846D8E703461A6C18
:10214000084610B462B1DC68996814448C4228BF18
:102150001968DC6028BFD960D96810BC09F057BA8B
:1021600010BC704770B5044601F044FC94F845502B
:1021700004F124066DB2002D14DCFF2384F84530F1
:1021800001F058FC01F036FC94F8445004F11006BC
:102190006DB2002D12DCFF2384F84430BDE870409E
:1021A00001F048BC636A002BE7D0304600F024FF02
:1021B00008B100F09BFF013D6DB2DCE72369002B05
:1021C000E9D0304600F018FF08B100F08FFF013D64
:1021D0006DB2DEE738B50D46044640B94FF0500306
:1021E00083F31188BFF36F8FBFF34F8FFEE701F0CA
:1021F00001FCD4E90F314B432268D0185B1AA06070
:10220000626000201A44FF23A063E26084F8443037
:1022100084F84530A5B9236973B104F1100000F0CA
:10222000EBFE48B14FF0E0234FF08052C3F8042D8D
:10223000BFF34F8FBFF36F8F01F0FCFB012038BD60
:1022400004F11000FFF7FCFE04F12400FFF7F8FE94
:10225000F2E7F8B50D461746064640B94FF0500371
:1022600083F31188BFF36F8FBFF34F8FFEE74843AF
:10227000503001F0A9FA044658B165B100F150039D
:1022800001212046C4E90F652360FFF7A3FF84F80E
:102290004C702046F8BD0346F2E710B50C4640B935
:1022A0004FF0500383F31188BFF36F8FBFF34F8F4D
:1022B000FEE7884208D24FF0500383F31188BFF342
:1022C0006F8FBFF34F8FFEE702220021FFF7C1FFA0
:1022D00000B1846310BD2DE9FF410F461E46044640
:1022E000019240B94FF0500383F31188BFF36F8F11
:1022F000BFF34F8FFEE751B9036C43B14FF050036A
:1023000083F31188BFF36F8FBFF34F8FFEE7022E69
:102310000BD1E36B012B08D04FF0500383F31188EE
:10232000BFF36F8FBFF34F8FFEE700F08DFF0546C1
:1023300030B300254FF0000801F05CFBA26BE36BAB
:102340009A4201D3022E27D1324639462046FFF762
:10235000C2FE636A1BB104F1240000F04DFE48B1D7
:102360004FF0E0234FF08052C3F8042DBFF34F8F9E
:10237000BFF36F8F01F05EFB012004B0BDE8F08178
:10238000019B002BD6D04FF0500383F31188BFF38D
:102390006F8FBFF34F8FFEE7019B1BB901F04AFB24
:1023A0000020EAE715B902A800F05EFE01F042FB4A
:1023B00000F0E2FC01F01EFB94F84430FF2B08BF54
:1023C00084F8448094F84530FF2B08BF84F845809A
:1023D00001F030FB01A902A800F050FE38BB01F06B
:1023E00009FBA26BE36B9A420ED101F023FB01992A
:1023F00004F1100000F0E8FD2046FFF7B3FE00F006
:1024000045FD48B1012597E701F014FB2046FFF791
:10241000A9FE00F03BFDF5E74FF0E0234FF08052BE
:10242000C3F8042DBFF34F8FBFF36F8FEAE7204649
:10243000FFF798FE00F02AFDB2E770B5064650207F
:1024400001F0C2F9044688B1002501210060C0E90D
:102450000F15FFF7BFFE2B462A462946204684F873
:102460004C60A5602560E560FFF735FF204670BD34
:102470002DE9F843894617461E46044640B94FF0F9
:10248000500383F31188BFF36F8FBFF34F8FFEE7C5
:1024900051B9036C43B14FF0500383F31188BFF37C
:1024A0006F8FBFF34F8FFEE7022E0BD1E36B012B33
:1024B00008D04FF0500383F31188BFF36F8FBFF341
:1024C0004F8FFEE701F06CFBEFF311884FF05003E4
:1024D00083F31188BFF36F8FBFF34F8FA26BE36B52
:1024E0009A4201D3022E1ED194F8455032464946F5
:1024F00020466DB2A36BFFF7EEFD6B1C0ED1636A35
:102500003BB104F1240000F077FD10B10FB10123BD
:102510003B60012088F31188BDE8F88301356DB276
:1025200084F84550F5E70020F4E770B50D46044601
:1025300040B94FF0500383F31188BFF36F8FBFF39F
:102540004F8FFEE7036C43B14FF0500383F31188C4
:10255000BFF36F8FBFF34F8FFEE7036853B98368F4
:1025600043B14FF0500383F31188BFF36F8FBFF374
:102570004F8FFEE701F014FBEFF311864FF050038D
:1025800083F31188BFF36F8FBFF34F8FA26BE36BA1
:10259000934219D994F845100132FF294BB2A26336
:1025A0000DD1636A3BB104F1240000F025FD10B1A8
:1025B0000DB101232B60012086F3118870BD01331A
:1025C0005BB284F84530F6E70020F5E72DE9FF41DE
:1025D0000E460446019240B94FF0500383F3118830
:1025E000BFF36F8FBFF34F8FFEE751B9036C43B159
:1025F0004FF0500383F31188BFF36F8FBFF34F8FFA
:10260000FEE700F021FE054618B300254FF0000854
:1026100001F0F0F9A76B47B331462046013FFFF7C1
:102620008DFDA763236973B104F1100000F0E4FC91
:1026300048B14FF0E0234FF08052C3F8042DBFF3B0
:102640004F8FBFF36F8F01F0F5F9012004B0BDE8A3
:10265000F081019B002BD9D04FF0500383F31188F8
:10266000BFF36F8FBFF34F8FFEE7019B1BB901F0E4
:10267000E1F90020EAE715B902A800F0F5FC01F045
:10268000D9F900F079FB01F0B5F994F84430FF2B4B
:1026900008BF84F8448094F84530FF2B08BF84F8C5
:1026A000458001F0C7F901A902A800F0E7FC00BBD2
:1026B0002046FFF705FDB0B1019904F1240000F0B8
:1026C00083FC2046FFF74EFD00F0E0FB48B94FF0D9
:1026D000E0234FF08052C3F8042DBFF34F8FBFF3B8
:1026E0006F8F012594E72046FFF73CFD00F0CEFBFD
:1026F000F7E72046FFF736FD00F0C8FB2046FFF75E
:10270000DFFC0028EDD0B4E7F0B585B004460191B8
:1027100040B94FF0500383F31188BFF36F8FBFF3BD
:102720004F8FFEE7056C45B14FF0500383F31188DE
:10273000BFF36F8FBFF34F8FFEE700F085FD0646B6
:1027400020B32E46002701F055F9A36B53B3013B8C
:10275000A363236813B900F0C9FEA060236973B1B5
:1027600004F1100000F048FC48B14FF0E0234FF0B6
:102770008052C3F8042DBFF34F8FBFF36F8F01F06A
:1027800059F9012005B0F0BD3546DBE7019B002B70
:10279000FAD04FF0500383F31188BFF36F8FBFF36C
:1027A0004F8FFEE7019B53B9002D66D04FF05003C9
:1027B00083F31188BFF36F8FBFF34F8FFEE716B916
:1027C00002A800F051FC01F035F900F0D5FA01F053
:1027D00011F994F84430FF2B08BF84F8447094F842
:1027E0004530FF2B08BF84F8457001F023F901A99B
:1027F00002A800F043FC50BB2046FFF761FC00B389
:1028000023683BB901F0F6F8A06800F02DFD0546FD
:1028100001F010F9019904F1240000F0D5FB2046E5
:10282000FFF7A0FC00F032FB48B94FF0E0234FF077
:102830008052C3F8042DBFF34F8FBFF36F8F012673
:1028400081E72046FFF78EFC00F020FBF7E72046EB
:10285000FFF788FC00F01AFB2046FFF731FC002848
:10286000EDD065B101F0C6F8616A19B1236B196842
:10287000C1F10701A06800F08BFD01F0DBF800203A
:1028800080E72DE9F84389469046044640B94FF069
:10289000500383F31188BFF36F8FBFF34F8FFEE7B1
:1028A00051B9036C43B14FF0500383F31188BFF368
:1028B0006F8FBFF34F8FFEE701F072F9EFF31187CF
:1028C0004FF0500383F31188BFF36F8FBFF34F8F27
:1028D000A56B0DB394F844604946204676B2FFF7E5
:1028E0002DFC013D731CA56311D1236953B104F183
:1028F000100000F081FB28B1B8F1000F02D00123D5
:10290000C8F80030012087F31188BDE8F88301364C
:1029100076B284F84460F5E72846F4E710B504463B
:1029200040B94FF0500383F31188BFF36F8FBFF3AB
:102930004F8FFEE701F05EF8A46B01F07BF82046B4
:1029400010BD40B94FF0500383F31188BFF36F8F70
:10295000BFF34F8FFEE7806B70470000002310B578
:10296000074A02EBC3014C68844204D1002042F8BC
:102970003300486010BD0133082BF2D1FAE700BFE5
:102980004C3E002010B5044640B94FF0500383F38D
:102990001188BFF36F8FBFF34F8FFEE7FFF7DEFFA6
:1029A0002046BDE8104000F093BF0000064B1A68B7
:1029B00012681AB94FF0FF325A6070471A68D2682D
:1029C000D2685268F8E700BF8C3E002070B5124C08
:1029D0000646A568E0680430FFF762FB38B9E26894
:1029E0002369D16A01228A4023EA02032361E36852
:1029F000AD195D6006D36069E168BDE870400431DF
:102A0000FFF737BB2068E1680431FFF732FB6368EA
:102A10009D4238BF656070BD8C3E002080B54FF090
:102A2000E0264FF08057114C236B4BB9636B012BA1
:102A3000FAD9C6F8047DBFF34F8FBFF36F8FF3E76A
:102A400000F0D8FF636ADD68281DFFF729FBE36A01
:102A5000013BE362236B013B236300F0EBFF286B38
:102A600000F036FF284600F033FFDDE78C3E002003
:102A70002DE9F84F9600074630460D469846DDF89A
:102A80002C9000F0A1FE824618B94FF0FF30BDE84F
:102A9000F88F5C2000F098FE0446002800F0A68025
:102AA0003246C0F830A0A521504608F00CFD236B3B
:102AB000043E1E4426F00706002D00F089806B1EA0
:102AC00004F133020F3513F8011F02F8011F09B199
:102AD000AB42F8D1002384F843300A9D4FF0000B3D
:102AE000062D28BF062504F1040A5046E562E56478
:102AF000C4F850B0FFF7AFFAC5F1070504F11800AC
:102B0000FFF7A9FAC4F854B042463946304624616A
:102B1000A561646284F858B000F042FF2060B9F10A
:102B2000000F01D0C9F80040324D00F063FFEB6A9E
:102B300005F134070133EB62EE68002E4BD1EC60F7
:102B4000EB6A012B1CD1B84640460136FFF778FAF4
:102B5000072E08F11408F7D1274E304606F1140865
:102B6000FFF76EFA4046FFF76BFA06F12800FFF711
:102B700067FAA6F1A800FFF763FA2E60C5F8148083
:102B8000D5F8003114200133C5F800316364012306
:102B9000E26A296993400B4300FB027051462B61A6
:102BA000FFF75CFA00F046FFD5F8FC3073B1EB6834
:102BB000DA6AE36A9A4209D24FF0E0234FF080527A
:102BC000C3F8042DBFF34F8FBFF36F8F01205EE773
:102BD00084F8345081E7D5F8FC20E36A002ACFD18D
:102BE000EA68D26A9A4298BFEC60C9E7504600F0A2
:102BF0006FFE4AE78C3E00204C3F002070B5054632
:102C00002A4C00F0F7FE05B9E5682E1D3046FFF7A7
:102C100047FA58B91423E96A03FB01435B6B2BB9EC
:102C2000012223698A4023EA02032361AB6A1BB1B4
:102C300005F11800FFF734FAD4F800310133C4F875
:102C40000031E368AB421AD131461948FFF706FA62
:102C5000236B0133236300F0EDFED4F8FC3023B383
:102C6000E368AB4221D1D4F80431A3B14FF0500353
:102C700083F31188BFF36F8FBFF34F8FFEE7E36AD3
:102C8000286B013BE36200F023FE284600F020FEA3
:102C9000FFF78CFEDFE74FF0E0234FF08052C3F8E0
:102CA000042DBFF34F8FBFF36F8F70BD8C3E00209C
:102CB000A43E0020F8B5054640B94FF0500383F319
:102CC0001188BFF36F8FBFF34F8FFEE70E4CE368A1
:102CD000834212D000F08EFE27686D69666900F0AD
:102CE000A9FEBD420BD0B54209D01834A54208D088
:102CF000002D14BF01200420F8BD0020FCE70220B5
:102D0000FAE70420F8E700BF8C3E002037B5002525
:102D1000164C802204F58473019315492B461548FF
:102D20000095FFF7A5FE012812D14FF0500383F361
:102D30001188BFF36F8FBFF34F8F4FF0FF33636086
:102D4000C4F8FC00A56003B0BDE8304000F0D2BE7E
:102D5000013008D14FF0500383F31188BFF36F8F18
:102D6000BFF34F8FFEE703B030BD00BF8C3E0020A5
:102D7000CC3501081D2A0008034AD2F8043101337A
:102D8000C2F80431704700BF8C3E0020014B9868A8
:102D9000704700BF8C3E002008B500F001FF014BDA
:102DA000986808BD8C3E00202DE9F84F354CD4F8CA
:102DB0000431002B5FD1A7680137A760B7B923683A
:102DC0001B6843B14FF0500383F31188BFF36F8F3B
:102DD000BFF34F8FFEE72368626922606361D4F816
:102DE0000C310133C4F80C31FFF7E0FD63680025B6
:102DF0009F4210D21422E368DB6A02FB03435B6B41
:102E0000022BD4F8103128BF0125002B18BF012553
:102E10002846BDE8F88F4FF0010B4FF0140ADFF899
:102E2000689023681B681BB94FF0FF336360E1E7CC
:102E30002368DB68DE6873689F42F7D306F10408F5
:102E40004046FFF72DF9B36A1BB106F11800FFF7F2
:102E500027F9F06A22690BFA00F3134341460AFB93
:102E600000902361FFF7FAF8E368F26ADB6A9A429E
:102E700028BF0125D5E7D4F8143100250133C4F863
:102E80001431C5E78C3E0020C03E00202DE9F843F8
:102E9000334CD4F8043143B94FF0500383F3118815
:102EA000BFF36F8FBFF34F8FFEE700F0A3FDD4F8A1
:102EB0000431013BC4F80431D4F804512DB100248D
:102EC00000F0B8FD2046BDE8F883E36A002BF6D099
:102ED00001264FF0140804F134071DE0D4F8F43053
:102EE000DD6805F1040905F11800FFF7D9F8484637
:102EF000FFF7D6F8E86A226906FA00F31343494659
:102F000008FB00702361FFF7A9F8E368EA6ADB6A4F
:102F10009A4201D3C4F81061D4F8E830002BDDD117
:102F20000DB1FFF743FDD4F814514DB10126FFF761
:102F30003BFF08B1C4F81061013DF8D1C4F8145149
:102F4000D4F81031002BBAD04FF0E0234FF080526C
:102F5000C3F8042DBFF34F8FBFF36F8F0124AFE78A
:102F60008C3E0020174A10B5D2F804311BB1012362
:102F7000C2F8103110BDC2F810311369B3FA83F3EF
:102F80001421DBB2C3F11F0359435018446B44B9F9
:102F90004FF0500383F31188BFF36F8FBFF34F8F50
:102FA000FEE7846B114464683C318C4208BF616861
:102FB000846308BF8163142101FB03239B6BDB68DF
:102FC000D360D7E78C3E002010B50C4640B94FF0D7
:102FD000500383F31188BFF36F8FBFF34F8FFEE76A
:102FE000044BD9681831FFF744F82046BDE810407B
:102FF000FFF7ECBC8C3E0020C36870B5DD6845B9B6
:103000004FF0500383F31188BFF36F8FBFF34F8FDF
:10301000FEE7144C05F118063046FFF741F8D4F8E6
:103020000431DBB92E1D3046FFF73AF80123142096
:10303000EA6A216993400B433146236104F134036A
:1030400000FB0230FFF70AF8E368EA6ADB6A9A429B
:103050008ABF01200020C4F8100170BD314604F180
:10306000E800EFE78C3E0020034BD3F80C219B686F
:1030700002604360704700BF8C3E002038B50C46AC
:10308000054640B94FF0500383F31188BFF36F8FAB
:10309000BFF34F8FFEE741B94FF0500383F3118820
:1030A000BFF36F8FBFF34F8FFEE700F0A3FC0E4B13
:1030B00028689968D3F80C316A68984201D08A422E
:1030C00010D92368881A83420AD95B1A13442360F3
:1030D0002846FFF7C9FF002400F0ACFC204638BDAD
:1030E000002323600124F7E78C3E00200122024BDD
:1030F000C3F81021704700BF8C3E002070B50E460B
:103100001546044608B9154AD46804F134027260C1
:10311000E26A052B3261226B3460F261626CB2604C
:10312000E26C72614FF00002B2610FD00B4AD268BC
:10313000A24208BF0023337335B10022216B8B5CA0
:10314000A52B08D0C2F38F05358470BD2046FFF74C
:10315000B1FD0346EFE70132F1E700BF8C3E0020EE
:103160002DE9F84F0D6806460C4617462DB300258D
:103170004FF0240B4B6801F108085B6843454B6036
:1031800004BFCB684B604B68D3F80CA063680BFBA3
:1031900005615B6801229845636008BFD8F8043078
:1031A00005F1010508BF63606368D3F80C903B46E6
:1031B0004846FFF7A3FFCA45E8D12846BDE8F88F87
:1031C0002DE9F84FDFF878901746FFF7D5FDD9F8CD
:1031D0002C3005468B4231D8072600244FF0140BC3
:1031E0004FF0240809F1340A013E08FB0450012283
:1031F0000BFB06A1FFF7B4FF0444002EF4D102221A
:1032000008FB0450D9F80010FFF7AAFF044402227B
:1032100008FB0450D9F81410FFF7A2FF044404225D
:1032200008FB04500749FFF79BFF2FB90444FFF741
:103230002DFE2046BDE8F88F3E60F7E70024F6E754
:103240008C3E0020A43E0020064BD3F8FC2032B177
:10325000D3F80401B0FA80F0400940007047012023
:10326000704700BF8C3E0020F8B5044600282FD0E0
:103270001E4DC36AEA68D26A93422ED282691C4EFE
:10328000002AA1BFEA68D26AC2F107028261142251
:1032900002FB036342699A421BD1071D3846FEF7C1
:1032A000FFFE30B90122E16A2B698A4023EA02035A
:1032B0002B61EB681420DA6A0123296993400B43E0
:1032C00000FB02603946E2622B61FEF7C7FE012077
:1032D000F8BDEB68DB6AC362F9E7EB68C06CDB6AD8
:1032E00098422CBF00200120F2E700BF8C3E002056
:1032F000C03E002070B5044608B9002070BD224DC4
:10330000EB68834208D04FF0500383F31188BFF37A
:103310006F8FBFF34F8FFEE71B6D43B94FF0500324
:1033200083F31188BFF36F8FBFF34F8FFEE7C16A3E
:10333000C26C013B91420365DFD0002BDDD1061D3D
:103340003046FEF7ADFE58B91423E16A03FB015382
:103350005B6B2BB901222B698A4023EA02032B61A4
:10336000E36C1420C3F10702A261E362012429691E
:1033700004FA03F20A432A61044A314600FB03209F
:10338000FEF76CFE2046B9E78C3E0020C03E0020D0
:10339000F8B50446002848D0026D42B94FF05003FA
:1033A00083F31188BFF36F8FBFF34F8FFEE7C36CBA
:1033B000994238BF1946C36A8B4236D0012A34D1AC
:1033C0001A4DEA68824208D14FF0500383F3118806
:1033D000BFF36F8FBFF34F8FFEE78269144E002A51
:1033E0004FF0140202FB03634269C162A4BFC1F142
:1033F000070181619A4218D1071D3846FEF750FE39
:10340000E26A28B901202B69904023EA00032B616E
:1034100001231420296993400B4300FB02603946C5
:103420002B61BDE8F840FEF719BEF8BD8C3E0020C8
:10343000C03E00202DE9F04F4FF000082427284B14
:1034400080F80080DD6A0446D86A85B0784300F0D1
:10345000BBF90646002840D029464246FFF7B0FE99
:10346000354607FB0067DFF87CB0AF4205D1304638
:1034700005B0BDE8F04F00F02BBA2B7B6968042B38
:10348000204694BF1BF803A04FF0000A08F0B7F8DD
:103490002046FCF7A7FE0F28C0F10F0288BF0022CC
:1034A000814620212018039208F00DF8039A0E4956
:1034B0004A4404F80280AB6804EB020901932B8CA8
:1034C000524600932B69484607F08AFF4846FCF7AE
:1034D00089FE243509EB0004C7E705B0BDE8F08F8D
:1034E0008C3E002076CC0008D1350108044BDA6808
:1034F0001AB1D9680A6D01320A65D868704700BFF1
:103500008C3E002008B5FFF701FC002008BDEFF35A
:1035100005830BB1FFF740BCFFF738BC30B504465C
:10352000228AB4F9084085B0842C0CBF00240334EF
:1035300003AD0B46D0E90010CDE90045FFF798FA3E
:10354000012814BF0020039805B030BD08B5FFF76F
:1035500055FB002008BD0120FEF76FBF002307B513
:103560000193F8B1EFF30582BAB1194601AAFFF74A
:1035700088F9012803D0FF2003B05DF804FB019B0C
:103580004BB14FF0E0234FF08052C3F8042DBFF34E
:103590004F8FBFF36F8F0020EEE7FFF7B5F80128DC
:1035A000F9D0E8E78020E7E7002307B50193EFF3C0
:1035B0000583B3B101A9FEF7B8FF012803D0FF20AE
:1035C00003B05DF804FB019B4BB14FF0E0234FF0DB
:1035D0008052C3F8042DBFF34F8FBFF36F8F0020CD
:1035E000EEE71A461946FEF776FE0128E7D1F6E720
:1035F00010B5EFF305841CB9FFF7C4F9204610BDE0
:103600008224FBE70129084610B50CD103220021D2
:10361000FEF71FFE044620B100231A461946FEF7A6
:103620005AFE204610BDBDE81040FEF736BE00230E
:1036300007B50193F8B1EFF30582BAB1194601AAB3
:10364000FFF71FF9012803D0FF2003B05DF804FB4A
:10365000019B4BB14FF0E0234FF08052C3F8042D93
:10366000BFF34F8FBFF36F8F0020EEE7FFF74CF8EB
:103670000128F9D0E8E78020E7E7FFF795BFFFF7DB
:10368000B7BF002203C8FEF7E4BD1FB501910021BA
:103690000391EFF30583C3B10B4603AA01A9FEF71B
:1036A000E7FE012803D0FF2005B05DF804FB039B73
:1036B0004BB14FF0E0234FF08052C3F8042DBFF31D
:1036C0004F8FBFF36F8F0020EEE7012A38BF012232
:1036D00001A9FEF700FE0128F5D0E4E7002330B58C
:1036E00085B00546144608460391029311B980231C
:1036F000019318E00093EFF30583E3B16A4602A952
:10370000FFF7BFF8431E58425841009B000101904B
:103710004BB14FF0E0234FF08052C3F8042DBFF3BC
:103720004F8FBFF36F8F04AB13E9070085E80700E5
:10373000284605B030BD02A9FEF748FF012801D197
:103740001023D5E7003C18BF0124A4010194EAE747
:1037500008B5FFF779FD012803D0BDE8084000F067
:10376000A1B908BD08B5FFF765FE002008BDEFF35D
:1037700005830BB1FFF7E5B8FFF7D0B8FFF738BF07
:10378000104B30B51D461A461B688342FBD3546864
:103790001119884201BF41681046091951604468F7
:1037A00001198B420BD1A9688B4203D0596821447F
:1037B000416019689042016018BF106030BD194621
:1037C000F8E700BFA43F00202DE9F0413E4D04463C
:1037D000FFF7D2FAAB68F3B93C4A56071FBFD11DB9
:1037E00021F0070102F5C842531A0CBF4FF4C84339
:1037F0000A4600211344083B23F0070369602A604E
:10380000C3E90011991AC2E90031AB604FF00043DF
:10381000C5E903116B616F69274250D1002C41D07B
:1038200004F1080360071CBF23F007030833002BD3
:1038300045D02C699C4242D32E68234872689A4234
:1038400001D23168A9B9A968B14238D03168D21A19
:10385000102AD0F80080016012D9F01841070BD06F
:103860004FF0500383F31188BFF36F8FBFF34F8F77
:10387000FEE730460E46E1E742607360FFF780FFE7
:1038800000237268E9683360AB69A41A8C4247EA86
:10389000020703F101032C6138BFEC60776008F187
:1038A0000804AB61FFF7F2FA63070AD04FF0500348
:1038B00083F31188BFF36F8FBFF34F8FFEE70024B0
:1038C000F0E72046BDE8F081A43F0020C43F00207F
:1038D00038B5044680B3194D50F8043C6A69134268
:1038E00008D14FF0500383F31188BFF36F8FBFF3FC
:1038F0004F8FFEE750F8081C41B14FF0500383F39F
:103900001188BFF36F8FBFF34F8FFEE723EA0203E7
:1039100040F8043CFFF730FA2A6954F8043CA4F15B
:10392000080013442B61FFF72BFFEB690133EB61B8
:10393000BDE83840FFF7AABA38BD00BFA43F002059
:1039400006480068006880F3088862B661B6BFF375
:103950004F8FBFF36F8F00DF00BF000008ED00E066
:10396000002382B001930D4B1B68013308D04FF048
:10397000500383F31188BFF36F8FBFF34F8FFEE7C0
:103980004FF0500383F31188BFF36F8FBFF34F8F56
:10399000019B002BFCD002B0704700BF200000202C
:1039A0004FF0807340F8043C054B21F0010140F8D2
:1039B000081C40F80C3C40F8202C4038704700BFF1
:1039C0006139000800000000000000000000000055
:1039D000074B19680868B0E8F00F80F30988BFF357
:1039E0006F8F4FF0000080F311884EF00D0E70477E
:1039F000983E00204FF0500383F31188BFF36F8F80
:103A0000BFF34F8F0A4A13680133012B13600ED1A5
:103A10004FF0E023D3F8043DDBB243B14FF0500345
:103A200083F31188BFF36F8FBFF34F8FFEE77047AB
:103A300020000020084A136843B94FF0500383F375
:103A40001188BFF36F8FBFF34F8FFEE7013B136009
:103A50000BB983F31188704720000020000000009C
:103A6000EFF30980BFF36F8F0D4B1A6820E9F00F59
:103A700010602DE908404FF0500080F31188FFF7E7
:103A800071FA4FF0000080F31188BDE80840196812
:103A90000868B0E8F00F80F30988BFF36F8F7047B4
:103AA000983E002008B54FF0500383F31188BFF310
:103AB0006F8FBFF34F8FFFF777F928B14FF0E023F7
:103AC0004FF08052C3F8042D002383F3118808BD02
:103AD0004FF0E02200234FF47A7113619361044B9D
:103AE0001B68B3FBF1F3013B53610723136170477C
:103AF0001400002013B5274B1A78D2B20192FF228E
:103B00001A701B78DBB28DF803309DF80320224B2E
:103B100002F050021A7007225A609DF803105A688A
:103B200009060AD4032A11D04FF0500383F31188F9
:103B3000BFF36F8FBFF34F8FFEE7013A5A609DF8D6
:103B400003205200D2B28DF80320E6E74FF4407212
:103B50005A60019B0F4ADBB213704FF0E023002440
:103B6000D3F8202D42F47002C3F8202DD3F8202D75
:103B700042F07042C3F8202DFFF7AAFF074B1C60EC
:103B8000FFF7DEFEFFF7EEF92046FFF7E9FE02B091
:103B900010BD00BF00E400E0C4A30020200000200E
:103BA000EFF305830F2B114A0DD911495B5C117896
:103BB000994208D94FF0500383F31188BFF36F8FF8
:103BC000BFF34F8FFEE74FF0E023D3F80C3D526870
:103BD00003F4E063934208D94FF0500383F3118854
:103BE000BFF36F8FBFF34F8FFEE77047C4A3002072
:103BF000F0E300E00A6810B50C320C4601F09AFAC6
:103C000008B994F9040010BD7FB558B94FF44A7251
:103C10000A4B0B490B4807F0D1FB6FF00F0007B0C0
:103C20005DF804FB292301908DF80C10064801A9CA
:103C30008DF80D30FFF7DEFFF1E700BFE03501083A
:103C40004A36010817340108DD4E0008002370B51C
:103C500086B004460D46009351B940F2E7123B4B43
:103C60003B493C4807F0AAFB6FF00F0006B070BD5F
:103C70000B6020B940F2E912344B3749F1E70646B0
:103C800016F8103B03F0F003102B0BD1304607F071
:103C9000E8F938B904F1140007F0E3F968B96FF0F6
:103CA0000E00E3E7304607F0DCF948B940F2F512C0
:103CB000264B2A49274807F081FB6FF00A00D5E719
:103CC00094F9080010F10C0FD0DB00226946304651
:103CD00007F094F9237803F0F003102B009B28D110
:103CE0000194ABB11B891E4801A90393FFF782FF22
:103CF000009AA2B9636A13B101212046984763680C
:103D000043B994F90800002808BF6FF00D00ADE733
:103D10000123E8E701212046FFF776FFBFE712897C
:103D2000636A13B1012120469847009B00202B6055
:103D30009CE733B940F23E22044B0A49054807F09C
:103D40003DFB009B1B681A89EAE700BFE0350108CC
:103D50006636010817340108843601089F360108C9
:103D6000954D0008BE36010870B50D4686B0114667
:103D700000F09CFD044600283DD0019001A9204898
:103D80008DF80C50FFF736FF002835D063682BB153
:103D900089221C4B1C491D4807F010FB04F110053B
:103DA000284607F05EF928B98A22164B18491748A9
:103DB00007F004FB04F1140007F053F928B18C223A
:103DC000104B1449114807F0F9FA04F10C0630467B
:103DD00007F086F928B98F220A4B0F490B4807F0E4
:103DE000EDFA304607F079F9284607F0F3F8214656
:103DF000072003F00BFC0024204606B070BD00BF76
:103E000035480008E0350108CA36010817340108B2
:103E1000EB360108003701082137010810B50446C8
:103E200086B058B12923019001A906488DF80D30BC
:103E3000FFF7E0FE18B9204600F07CFD002006B038
:103E400010BD00BF214B00087FB550B9FF220B4BBE
:103E50000B490C4807F0B2FA6FF00F0007B05DF89D
:103E600004FB094B0190002908BF1946074803913C
:103E700001A9ADF81020FFF7BDFEEFE7E03501081E
:103E8000943701081734010880CC0008514C000811
:103E90007FB558B94FF4B472074B0849084807F08A
:103EA0008DFA6FF00F0007B05DF804FB019001A9D7
:103EB0000448FFF79FFEF6E7E0350108EE370108FA
:103EC00017340108B14C0008F7B504460D4651B946
:103ED00040F28D121F4B2049204807F06FFA6FF017
:103EE0000F0003B0F0BD00260E6020B940F28F1223
:103EF000184B1B49F0E790F9080010F10C0FF0DBAC
:103F000004F11407384607F0ACF8D0B13846324611
:103F100001A907F073F8636A019F1BB132460121C2
:103F2000204698470F4B019A9A4210D067B907F084
:103F300011F994F908300C33A4BFF123237207F070
:103F400015F96FF00E00CCE700202F60C9E76FF085
:103F50000C00C6E7E03501080B38010817340108EA
:103F60002B380108CCA30020F7B505460E4659B9F9
:103F70004FF41D721F4B2049204807F01FFA6FF0C5
:103F80000F05284603B0F0BD00220A6020B940F2B8
:103F90007622184B1A49EFE7037803F0F003102B51
:103FA00023D10620019203F015FB0446D0B1284628
:103FB00001A9FFF74BFE054620B12146062003F07C
:103FC00025FBDEE7019F37B940F28A22094B0D49F4
:103FD0000A4807F0F3F90023C4E90077A381A3603E
:103FE0003460CEE74FF0FF35CBE703B0BDE8F040DB
:103FF000FFF72CBEE03501086636010817340108CA
:10400000843601086E4E010870B586B015460A9ECA
:1040100050B940F2E6221C4B1C491D4807F0CEF96E
:104020006FF00F0006B070BD027802F0F002102AA7
:1040300009D040F2E722144B1649154807F0BEF9A3
:104040006FF00500EEE70DB90020EBE7047E03F00A
:10405000040204F00204144302D0002EF0D0012424
:10406000019003910C4801A98DF814300495FFF7D5
:10407000C1FD0028D6D1002EE6D014B1049B3360D8
:10408000E2E73560E0E700BFE0350108633801088A
:10409000173401087F380108ED4D00080321FFF7B0
:1040A000B3BD00002DE9F047064617461D460C46F5
:1040B000BDF8208029B9B122204B2149214807F0C1
:1040C0007DF906B37368A34228D106F1100948466A
:1040D00006F0C7FFE8B1062003F07CFA0446C0B141
:1040E000C0E9007705B12D682146A5604846A4F8CF
:1040F0000C803D8906F078FF0146B0B12046BDE84E
:10410000F04700F059BFB2220C4B0F490D4807F0A1
:1041100055F93846BDE8F04703F0BCBBBA22074B5F
:104120000A49084807F04AF9CFE7736A23B12A46DB
:104130003046BDE8F0471847BDE8F087A1380108D0
:104140000B390108173401082D3901084C390108D1
:1041500010B544680146204603F0E8FF20460949AF
:1041600003F0E8FF2046084903F0FAFF204607491C
:10417000022204F029F82046BDE81040044904F06A
:1041800005B800BF7D4700081147000895460008A4
:10419000954100082DE9F0410D46044630B94FF431
:1041A000C272404B4049414807F008F90027667841
:1041B0006760042E677062D106F0CCFF94F9083076
:1041C00000250C33A8BF277206F0D0FF636A1BB12D
:1041D0000022042120469847636A1BB10022204632
:1041E00011469847636A1BB1002202212046984776
:1041F00004F11007384606F034FF18B100213846A4
:1042000006F0F2FE04F11407384606F02AFF18B152
:104210000021384606F0E8FE012E02D0033E012EB2
:1042200033D8237E23F004025B07227638D4236A36
:1042300033B940F2B3121B4B1D491C4807F0BEF8BE
:10424000236A1E681D710C36304606F049FF30B9EE
:104250004FF4DB72134B1749144807F0AFF80023F3
:10426000236206F077FF94F908300C33A8BF25725B
:1042700006F07CFF3046BDE8F04106F02BBF06F0AB
:1042800069FF257206F072FFA0E7236A43B1BDE81B
:10429000F04140F2BD12034B0749044807F08EB8C5
:1042A000BDE8F081A13801086A3901081734010816
:1042B0007739010891390108AA3901082DE9F84335
:1042C0008846044630B940F2E3526D4B6D496E4862
:1042D00007F074F86378012B06D040F2E452684B83
:1042E0006A49694807F06AF8236A33B940F2E5522F
:1042F000634B6749644807F061F8636833B940F27B
:10430000E6525F4B6349604807F058F8D4E9072349
:10431000DB689A4206D340F2E752594B5E495A484D
:1043200007F04CF8236A277E1D7C07F0020705F092
:10433000040299681743E269606801EB0209D968D1
:10434000B0F860608B1AB3F5803F2ABF4FF6FF7359
:104350009BB245F00205B3425CD91FB126B96FF09C
:10436000060518E045F002053244914206D240F2BB
:104370001362434B4949444807F020F82B46324624
:104380004946606805F0BEFC431CDBB2012B0546C4
:1043900060D8002F40D0236ADB689E423CD2636A1B
:1043A0001BB13246032120469847237E43F0100379
:1043B0002376002D43D1E3691E44236AE661DA685F
:1043C000964200D00FB10127DE60606805F0FEFF65
:1043D00010F10C0F01DB021D4ED100220546236AAD
:1043E000DA60236A1E681D710023C4E90733637015
:1043F00006F0B0FE94F908300C33A8BF257206F021
:10440000B5FEB8F1000F03D006F10C0006F062FE15
:10441000002026E01E46A7E740F669326368B3F83D
:104420006010914203D9B3F86230042BC1D9636A9A
:10443000002BBED03246032120469847B9E701350C
:1044400017D1606805F0C2FF10F10C0F054601DBC3
:10445000031D03D10022236ADA60C2E71FB94FF0BF
:10446000FF30BDE8F8830022236A6FF00605DA60AA
:10447000B7E76FF00605EDE7002FB2D1EFE700BF19
:10448000A13801086A390108173401083D3A0108CA
:10449000773901085A3A0108703A0108A23A01082E
:1044A0002DE9F0478A46044630B940F243326E4B5C
:1044B0006E496F4806F082FF237803F0F003102B5B
:1044C00006D04FF45172684B6A49694806F076FF8E
:1044D0006378042B06D040F24532634B664964484A
:1044E00006F06CFF636833B940F246325E4B6349B5
:1044F0005F4806F063FF236A33B940F247325A4BF4
:104500005F495B4806F05AFF236A65681B7A032BF4
:1045100003F0010903F002080FD0B9F1000F05D034
:104520002B7D5A1F012A08D9082B06D0B8F1000F9D
:1045300056D0AF7E17F0100704D00021284603F0B4
:10454000F5FD01272B7D012B4CD10021284603F0DE
:1045500035FE002F63D0284604F00AF90646236A88
:1045600040B1421C07D15B7A002B5ED11FB12846B7
:1045700004F02CFA0026236A1D681E7100232362B2
:104580006370CEB937B1636A66601BB132460421ED
:1045900020469847B9F1000F05D0636A1BB100228D
:1045A000204611469847B8F1000F05D0636A1BB149
:1045B000002202212046984706F0CCFD94F90830ED
:1045C0000C33A8BF267206F0D1FDBAF1000F03D05C
:1045D00005F10C0006F07EFD00263046BDE8F087B0
:1045E0004746AFE7B9F1000F07D00021284603F096
:1045F000A1FD0021284603F0E1FDB8F1000F03D032
:104600000021284603F0ACFD4FB100222846114698
:1046100003F0DAFD0021284603F0B8FD9BE742468F
:104620004946284604F038F998E72B7D012B06D13E
:1046300040F2E3320C4B13490D4806F0BFFEB8F1CF
:10464000000F03D02846104903F08AFD01222846B6
:104650000E4903F0B9FD28460D4903F097FD2146A8
:10466000284603F063FDB8E7A13801085638010871
:1046700017340108CD3A0108EB3A01080F3B010855
:1046800077390108223B01081147000895460008C8
:104690009541000810B5044630B94FF49C72194B8F
:1046A00019491A4806F08AFE617801291CD1204672
:1046B000FFF704FE237EDA0614D5626892B140F655
:1046C0006931B2F8600088420CD9B2F86220042A3D
:1046D00008D823F010032376636A1BB1002202215D
:1046E00020469847002010BD0429E3D1226A1AB160
:1046F000537A0BB1013B537201212046FFF7D0FEE4
:10470000D8E700BFA13801086A3901081734010849
:1047100038B515460446D8B14178012921D1FFF7B3
:10472000CDFD6368DBB140F66932B3F860109142A9
:1047300015D9B3F86230042B11D8237E23F010036F
:104740002376636A5BB12A4602212046984706E039
:1047500040F26112064B0749074806F02FFE002081
:1047600038BD0429DDD10121FFF79AFED9E700BF4A
:10477000A13801086A390108173401082DE9F04110
:10478000044615461F460E4629B9F922244B2549F1
:10479000254806F013FE94B16368B34219D104F1C1
:1047A0001008404606F05DFCD8B935B1304629897D
:1047B00003F066FC284603F06DF8002007E0FA22BB
:1047C000174B1A49184806F0F9FD6FF00500BDE8CF
:1047D000F0814FF48072124B1549134806F0EEFD3C
:1047E000DDE747B106F0B6FC94F908300C33A8BFFA
:1047F000277206F0BBFC6DB12E892946404606F0B3
:10480000F3FB014640B9636A002BD6D032462046FE
:104810009847D2E72E46F0E74FF0FF30D7E700BFCA
:10482000A1380108453B010817340108673B01081E
:10483000863B010838B500230568037104466868A3
:1048400028BB2B7803F0F003102B14D0202B1CD1A5
:1048500006F014FB22686860506850B11378124962
:10486000222B04BF0123037406F0DEFA23685B6881
:104870006BB9FF230AE004F057F9686020684368C9
:10488000002BF6D0FFF764FCF0E7FA23237106F063
:1048900061FC236893F908200C3201DB22791A723B
:1048A000BDE8384006F062BCA5400008F8B50546F2
:1048B00007200E4602F08EFE0446A0B100230570CC
:1048C00005F0F005102D037243600ED0202D0CD0A2
:1048D0004FF42A72144B1549154806F06FFD214616
:1048E000072002F093FE00241BE004F110070621CC
:1048F000384606F05FFB01460028F0D104F10C00B9
:1049000006F0B7FB054618B1384606F063FBE6E74C
:1049100004F1140006F0AAFBC4E908566570E561CD
:1049200025762046F8BD00BFA1380108A43B010848
:104930001734010838B54368044633B14FF4387270
:10494000154B1649164806F039FD04F1100006F023
:1049500088FB30B140F2E1220F4B1249104806F0BB
:104960002DFD04F1140006F07CFB30B14FF43972D8
:10497000094B0D490A4806F021FD04F10C052846B3
:1049800006F0ABFB284606F0B0FB2146BDE83840F8
:10499000072002F03BBE00BFA1380108CA3B010856
:1049A00017340108F83B0108323C010873B500F1E7
:1049B00010050446284606F054FB58B1284601A9C4
:1049C00006F03EFB013019D1284606F003FB2846CD
:1049D00006F04CFB1434204606F043FB60B11A4E3F
:1049E000204601A906F02CFB01301CD1204606F020
:1049F000F1FA204606F03AFB02B070BD2378019E22
:104A000003F0F003102B0AD1002ED7D0606810B14C
:104A1000318903F035FB304602F03CFFCEE73046EB
:104A200000F0CAFACAE7019DB542D9D02846FFF77F
:104A3000BDFF686818B103F0C9FF00236B6028460A
:104A4000FFF778FFCCE700BFCCA300202DE9F041B1
:104A50000F469046044688B100F11406304606F031
:104A600000FB58B17FB930462C4906F0BDFA02462A
:104A700020B9636A13B10146204698476FF00506D6
:104A80003046BDE8F081616A2078FFF70FFF0546E8
:104A900068B93046214906F0A7FA024620B9636A90
:104AA00013B10146204698474FF0FF36E8E74760CC
:104AB000FFF74EFB3046294685F8088006F094FA49
:104AC000064618B36C680021204603F02FFB2046F1
:104AD000002103F02FFB2046002103F041FB0022C0
:104AE0002046114603F070FB0021204603F04EFBE8
:104AF000002305F1100420466B6006F06BFA204697
:104B000006F0B4FA2846FFF715FFCDE7636A002BDD
:104B1000B6D00246014620469847B1E7CCA3002014
:104B200070B5036804465D785DB31B7803F0F0034D
:104B3000102B06D04FF480623F4B4049404806F0AE
:104B40003DFC022D23681CD0032D02D11B7E5B0788
:104B500017D4FB23237120680C3006F0C1FA00281B
:104B600069D02368002B66D006F0F4FA236893F925
:104B700008200C32A4BF22791A72BDE8704006F0FA
:104B8000F5BA002520682571FFF710FF23685868E3
:104B900060B11A7802F0F002102A15D0202A02D152
:104BA000C56106F045F9002223685A602068436A0F
:104BB00013B10022114698472068436A002BCAD0DF
:104BC000002202219847C6E71A6A0AB9DB6933B1A5
:104BD00040F23442184B1B49194806F0EFFB0423FE
:104BE000206800214370032323720462FFF758FCFE
:104BF00008B323685B78042B06D040F23B420E4B8F
:104C000011490F4806F0DAFB104806F090FA2068C8
:104C100000210C3006F043FA0C4806F083FA2368B2
:104C20005B7843B1BDE8704040F23F42024B064919
:104C3000034806F0C3BB70BDA13801086E3C0108F3
:104C400017340108823C01089D3C0108D8A30020CC
:104C500010B50368044693F9082012F10C0F0FDA1F
:104C6000027123681BB306F075FA236893F90820D4
:104C70000C32A4BF22791A72BDE8104006F076BA51
:104C8000FA22027158680028EBD01B7803F0F00379
:104C9000102B07D0202BE4D1A289A16805F0E6FFF4
:104CA0002071DEE7A289A16803F01EF9F8E710BDC4
:104CB00037B50368044693F9082012F10C0F0EDA99
:104CC000027106F047FA236893F908200C3201DBE1
:104CD00022791A7203B0BDE8304006F047BAF522D7
:104CE000027158680028ECD01A7802F0F002102AFD
:104CF0004BD15B78002B44D1037D13B1FA23237190
:104D0000DFE7FF210DF1070203F038F9054638B956
:104D10009DF8073023712368002BD2D103B030BD3A
:104D20002068103006F09DF938B12068103006F088
:104D300051F92068103006F099F90023206823719A
:104D4000143006F08EF928B920680621143006F0D8
:104D500031F9207194F9043063B90223216828469F
:104D60004B704D6003F0E2F923680949586803F07D
:104D700025FAD0E7284603F0FBFC002223685A609E
:104D8000C9E7022B9DD10023B9E7F023B7E700BFA5
:104D90004D4A0008F8B500230371036804465A68B9
:104DA00052B906F0D7F9236893F908200C321ADAC1
:104DB000BDE8F84006F0DAB91B7803F0F003102BD9
:104DC000EFD14FF6FF778568BD422E4628BF3E469D
:104DD0002368B1B2586803F053F9AD1BF4D12368CE
:104DE000002BDED1F8BD22791A72E1E710B5036815
:104DF000044693F9082012F10C0F4DDB1A7802F0EB
:104E0000F002102A46D15A78002A53D15A68002A53
:104E100053D001225A701A6A0AB9DB6933B140F2E1
:104E20008262284B2849294806F0C8FAE36833B95A
:104E300040F28462234B2649244806F0BFFA002141
:104E400020680462C161FFF739FA002838D023686E
:104E50005B78012B06D040F289621A4B1D491B4832
:104E600006F0ACFA1C4806F062F9206800210C300C
:104E700006F015F9184806F055F923685B78012B00
:104E80001ED1BDE8104040F28D620E4B11490F4813
:104E900006F094BA6FF00502227106F05BF9236800
:104EA00093F908200C32A4BF22791A72BDE8104091
:104EB00006F05CB96FF00402EEE76FF00A02EBE770
:104EC00010BD00BFA1380108823C01081734010859
:104ED000B93C01089D3C0108D8A3002010B5044648
:104EE000006842684378002A48D0027802F0F00255
:104EF000102A43D1227A032A01D0022B3ED0032B61
:104F00003CD0012B4AD0D30701D5FFF74FFD2368D2
:104F10001A6A0AB9DB6933B140F21B72214B22498C
:104F2000224806F04BFA04232068002143700462F3
:104F3000FFF7B6FA002834D023685B78042B06D03C
:104F400040F22172174B1A49184806F037FA1948EF
:104F500006F0EDF8206800210C3006F0A0F81548A6
:104F600006F0E0F823685B78DBB1BDE8104040F262
:104F700025720C4B0E490D4806F020BA6FF00A035B
:104F8000237106F0E7F8236893F908200C32A4BFD8
:104F900022791A72BDE8104006F0E8B86FF00403F9
:104FA000EEE710BDA1380108823C01081734010862
:104FB0009D3C0108D8A3002010B5044660B10068EC
:104FC00020B102F067FC0023C4E900332146BDE8AC
:104FD0001040062002F01ABB10BD000008B540B911
:104FE000C2220F4B0F49104806F0E8F96FF00F008E
:104FF00008BD19B9C3220A4B0C49F4E71AB9C422F7
:10500000074B0B49EFE7436833B15B680B604368BC
:1050100000205B891380EBE76FF00100E8E700BF39
:10502000E23C0108F03D010817340108093E01087F
:10503000263E010807B51D4A13680BB15068984712
:105040001B4806F06FF81A4C1A4D261D204606F034
:105050006EF8304601A905F025FD204606F062F8FD
:10506000019B33B92B4669221349144806F0A6F96F
:10507000ECE71A78032A0CD0042A10D0022A12D1A5
:10508000D3E90212586890470920019902F0BEFA4C
:10509000DCE7D3E90120904708200199F6E7D3E93E
:1050A00001209047D2E72B469B22DDE7D0A30020CA
:1050B000D8A30020723E0108DA3E01081734010827
:1050C000F8B5074610480E46154605F0CAFF28B940
:1050D000B5220E4B0E490F4806F070F9092002F078
:1050E00079FA044668B102230146C0E901760370EB
:1050F000C560054805F078FF28B12146092002F077
:1051000085FA4FF0FF30F8BDDCA30020723E0108A5
:10511000F83E01081734010891F8333013F0180FE6
:1051200014BF024A024AFFF7CBBF00BFADAE000872
:105130005D66000870B50D46054E0446304605F024
:10514000F1FF2846A047304605F0F1FF002070BD72
:10515000D8A3002037B505460C4601F0CFFF124812
:105160000621C0E900540C3005F024FF30B140F2B4
:10517000D5120E4B0E490F4806F020F90E4805F0E7
:10518000C3FF30B140F2D912084B0C49094806F070
:1051900015F902230022009309494FF47A73094854
:1051A00005F0C8FF03B030BDD0A30020723E010857
:1051B000053F010817340108D8A30020283F010843
:1051C00035500008493F0108437A8B421FBF002336
:1051D00041728372C382704738B5838A04460233B2
:1051E000442B0D4606D940F28252094B09490A4820
:1051F00006F0E4F8A38A2269280AD11881F8F000A1
:10520000991C01339BB21A44A18282F8F05038BD38
:10521000503F0108BD3F01081734010870B5838A6B
:1052200015460232D2B21344442B04460E4606D928
:105230004FF4AE62084B0949094806F0BFF8A38A4B
:105240002069C21882F8F0609A1C01339BB218449E
:10525000A28280F8F05070BD503F0108FE3F010867
:105260001734010838B5838A0446432B0D4606D906
:1052700040F27B52064B0749074806F09FF8A28A86
:105280002369511C1344A18283F8F05038BD00BF3C
:10529000503F0108464001081734010810B5044684
:1052A00040B940F28272BDE81040154B15491648CE
:1052B00006F084B8036933B940F28372104B134986
:1052C000114806F07BF8A38A432B06D940F284727A
:1052D0000B4B0F490C4806F071F8A38A2269591C40
:1052E000A182FF21134483F8F0100021A38A432BED
:1052F00000D910BD581C1344A08283F8F010F5E7C4
:10530000503F01088140010817340108A3400108FB
:10531000CF40010838B5838A05460433442B0C4638
:1053200006D940F28A520F4B0F49104806F046F852
:10533000AB8A2A69200ED11881F8F000591C89B275
:105340001144200C81F8F000991C89B21144200A04
:1053500081F8F000191D03339BB21A44A98282F828
:10536000F04038BD503F01080E41010817340108D4
:105370002DE9F0410D469046064650B940F21D72A7
:105380005D4B5E495E4806F019F86FF00F00BDE80E
:10539000F08149B940F21E72574B5A49584806F0FD
:1053A0000DF86FF00500F2E7CB6833B140F21F72E1
:1053B000514B5549524806F001F82B6933B14FF46F
:1053C000E4624D4B51494E4805F0F8FF00224FF47E
:1053D0009A71104602F0C8FAE860002800F089804F
:1053E0004389B3F59A7F06D240F22772424B48496F
:1053F000434805F0E3FFB8F1030F02D16B7A032BAA
:1054000007D1AB7A434C13B905F0D8FE206023686E
:105410002B60EB6800275C6801232C6123706370AC
:1054200096F82C30E770A370286801F018FE4FF44E
:10543000C873606023FA08F32C69DB072772677270
:10544000A772E77227736773A773E77306D4B8F17F
:10545000030F05D16B7A043B012B01D87368E3601D
:105460000023224623746374A374E3742375637565
:10547000A375E37523766376A37602F81B3F96F84F
:105480002C002D3699B2884231D9052B2FD8F15CEA
:105490000133102B02F8011FF4D14022002104F146
:1054A0002C0006F010F88022002104F16C0006F0B8
:1054B0000AF86FF07D01632284F8ED100023532178
:1054C00084F8EC2084F8EE1004F8EF2FAB8204F897
:1054D000013F0133442BFAD1012235212846FFF741
:1054E0009DFE28464146FFF7BDFE00204FE7002104
:1054F000CEE74FF0FF304AE7503F01084E41010828
:10550000173401086D4101088B410108B0410108C1
:10551000D7410108E0A3002010B5044640B940F28D
:105520006D72BDE810400F4B0F49104805F046BFA3
:10553000C36833B940F26E720A4B0D490B4805F04F
:105540003DFF236933B940F26F72064B09490748A2
:1055500005F034FFE06808B102F09CF90023C4E9CB
:10556000033310BD503F01081742010817340108EA
:10557000354201085A420108002373B50646446AC1
:1055800006212046A362FFF71FFE01222146304676
:10559000FFF7EEFE054678BB022239212046FFF7D1
:1055A0003DFE2046718DFFF717FE0322372120466E
:1055B000FFF734FE01212046FFF754FE0321204669
:1055C000FFF750FE1C212046FFF74CFE2046FFF758
:1055D00065FEA18AE068F03189B202F093FA134BBC
:1055E0001348CDE90063134A4323E168406805F09E
:1055F00099FB2046FFF790FFA37A2846FF2B1CBF9C
:105600000133A372A27A052A96BF4FF47A734EF63D
:10561000602393404FF4FA7298BF9BB203F2F313E6
:105620009BB2B3FBF2F3E38202B070BD80CC000802
:10563000E0A300207CCC000838B50546446A082168
:105640002046FFF7C1FD0022284604F1280100F0A2
:10565000CBFDA37AFF2B1CBF0133A3720123E3828E
:1056600038BD000013B5044648B940F2FE323C4B49
:105670003C493D4802B0BDE8104005F09FBE406A7D
:1056800020B94FF48062364B3849F2E70023038497
:10569000436B5A1C06D01E33B3F5701F3FD34FF631
:1056A000FF734384836B591C0BD01E33B3F5701FFB
:1056B0003CD23B2B3DD93C22B3FBF2F39BB203839C
:1056C0008383C36B5A1C0BD01E33B3F5701F32D2C9
:1056D0003B2B33D93C22B3FBF2F39BB24383C3830E
:1056E000438B028B9A4202D30BB100230383C37A0C
:1056F00033B3C36A026B0093019222B9826A1340EA
:1057000043F0807301930A21FFF75EFD6A4600F1C2
:10571000280101AB204601F0BFFF02B010BD3B2BBA
:105720008ABF3C220123B3FBF2F3BAE74FF6FF73C3
:10573000C5E70123C3E74FF6FF73CFE70123CDE7AA
:1057400090F9282090F82830002A06DABF2B4FF66F
:10575000FF7388BF6FF07F43CCE7FF23CAE700BF2A
:10576000503F010881420108173401089A4201089C
:1057700037B503210546446A0A462046FFF724FD53
:1057800021462846FFF7F4FD00283AD102223921AC
:105790002046FFF743FD4FF410712046FFF71CFD34
:1057A000042232212046FFF739FDA06A01F057FCA0
:1057B00001462046FFF7AEFD032237212046FFF7C2
:1057C0002DFD01212046FFF74DFD03212046FFF767
:1057D00049FD1C212046FFF745FD2046FFF75EFDF1
:1057E000A18AE068F03189B202F08CF91248009584
:1057F0004323124AE168406805F0FAFA2046FFF7B1
:105800008BFEA37AFF2B1CBF0133A372A37A092B53
:105810008EBF42F21073C3EB431203EB82034FF4CB
:10582000FA729CBFDB009BB203F2F3139BB2B3FB93
:10583000F2F3E38203B030BDE0A300207CCC00088B
:1058400037B50546446A01212046FFF7BDFC032217
:1058500021462846FFF78CFD002847D10222392136
:105860002046FFF7DBFC2046698DFFF7B5FC0422DC
:1058700032212046FFF7D2FCA06A01F0F0FB01467E
:105880002046FFF747FD042236212046FFF7C6FCDD
:10589000606A01F0E4FB01462046FFF73BFD03226E
:1058A00037212046FFF7BAFC01212046FFF7DAFC3A
:1058B00003212046FFF7D6FC1C212046FFF7D2FC2F
:1058C0002046FFF7EBFCA18AE068F03189B202F0D4
:1058D00019F9134B1348CDE90053134A4323E168E8
:1058E000406805F01FFA2046FFF716FEA37AFF2B4B
:1058F0001CBF0133A372A27A052A96BF4FF47A73B4
:105900004EF6602393404FF4FA7298BF9BB203F2B5
:10591000F3139BB2B3FBF2F3E38203B030BD00BFDD
:1059200080CC0008E0A300207CCC000837B50546F9
:1059300048B940F27B32234B2349244803B0BDE8E9
:10594000304005F03BBD446A002C39D0637A082B07
:1059500036D10A68A36A9A4232D10C212046FFF759
:1059600033FC042221462846FFF702FD08BB04222F
:1059700032212046FFF752FCA06A01F070FB01467D
:105980002046FFF7C7FC2046FFF788FCA18AE068A5
:10599000F03189B202F0B6F80D4B0E48CDE9005354
:1059A0000D4A4323E168406805F0BCF92046FFF743
:1059B000B3FDA37AFF2B1CBF0133A3721423E38230
:1059C00003B030BD503F01088C4201081734010874
:1059D00080CC0008E0A300207CCC000873B506460C
:1059E000446A05212046FFF7EFFB0322214630469B
:1059F000FFF7BEFC054670BB022239212046FFF7A7
:105A00000DFC2046718DFFF7E7FB0322372120466E
:105A1000FFF704FC01212046FFF724FC0321204668
:105A2000FFF720FC1C212046FFF71CFC2046FFF757
:105A300035FCA18AE068F03189B202F063F81448BD
:105A400000964323E168406804F1240205F0D0F990
:105A50002046FFF761FDA37A2846FF2B1CBF0133C8
:105A6000A372A37A092B8EBF44F62063C3EB4312C3
:105A700003EB82034FF4FA729CBF1B019BB203F24B
:105A8000F3139BB2B3FBF2F3E38202B070BD00BF2D
:105A9000E0A3002050B1406A40B1407A0A2806D005
:105AA000043801288CBF00200120C0B270470120BB
:105AB000FBE700007FB5446A0646002C42D0636ACB
:105AC00000210393FFF7E6FF05462046FFF77CFB26
:105AD000C4E90711C4E90911C4E90B11C4E90D11A6
